:020000040800F2
:1000000098090020C9010008C1100008AF0F0008BE
:10001000BD10000879020008FB1A0008000000006B
:10002000000000000000000000000000691400084B
:100030009503000800000000471400084916000856
:10004000E3010008E3010008E3010008E301000800
:10005000E3010008E3010008E3010008E3010008F0
:10006000E3010008E3010008E3010008E3010008E0
:10007000E3010008E3010008E3010008E3010008D0
:10008000E3010008E3010008E3010008E3010008C0
:10009000E3010008E3010008E3010008E3010008B0
:1000A000E3010008E3010008E3010008E3010008A0
:1000B000E3010008E3010008E3010008E301000890
:1000C000E3010008E3010008E3010008E301000880
:1000D000E3010008151A0008E3010008E301000825
:1000E000E3010008E3010008E301000800F002F862
:1000F00000F05AF80AA090E8000C82448344AAF168
:100100000107DA4501D100F04FF8AFF2090EBAE865
:100110000F0013F0010F18BFFB1A43F0010318473B
:10012000942F0000B42F00000A444FF0000C10F888
:10013000013B13F0070408BF10F8014B1D1108BF65
:1001400010F8015B641E05D010F8016B641E01F805
:10015000016BF9D113F0080F1EBF10F8014BAD1C55
:100160000C1B09D16D1E58BF01F801CBFAD505E073
:1001700014F8016B01F8016B6D1EF9D59142D6D3CD
:10018000704700000023002400250026103A28BFF5
:1001900078C1FBD8520728BF30C148BF0B607047F9
:1001A0001FB51FBD10B510BD00F033F81146FFF7A5
:1001B000F7FF01F015FD00F051F803B4FFF7F2FF6F
:1001C00003BC01F09CFC0000094880470948004737
:1001D000FEE7FEE7FEE7FEE7FEE7FEE7FEE7FEE7F7
:1001E000FEE7FEE704480549054A064B7047000054
:1001F0004D160008ED000008980300209809002023
:100200009805002098050020704770477047704798
:100210007047754600F02CF8AE4605006946534617
:1002200020F00700854618B020B5FFF7DBFFBDE8DA
:1002300020404FF000064FF000074FF000084FF04D
:10024000000B21F00701AC46ACE8C009ACE8C009DE
:10025000ACE8C009ACE8C0098D46704710B504464B
:10026000AFF300802046BDE81040FFF7A6BF0000B6
:10027000004870473803002000BFFEE710B500209B
:1002800000F040F80D490860012000F03BF80B49F0
:100290004860022000F036F808498860032000F02A
:1002A00031F80649C860002000F050F803490861A1
:1002B000012000F04BF80149486110BDB001002059
:1002C00010B5002000F01EF80D490860012000F074
:1002D00019F80B494860022000F014F808498860BA
:1002E000032000F00FF80649C860002000F02EF847
:1002F00003490861012000F029F80149486110BD57
:10030000C80100202DE9F0478146484600F0A0F9D9
:100310000B4908600846006801F02CFF07463A4682
:100320000B460848084901F0CDFD054601F0E4FC04
:1003300004462146204602F06FF9BDE8F087000030
:1003400090010020DBF97E6AB8A8AB412DE9F047A7
:100350008146484600F0B8F90B4908600846006835
:1003600001F008FF07463A460B460848084901F0E5
:10037000A9FD054601F0C0FC04462146204602F0D6
:100380004BF9BDE8F087000090010020DBF97E6AA0
:10039000B8A8AB41704700002DE9F047002047495D
:1003A00008704749087082462EE0464951F82A00F5
:1003B00002F0A4F80646444A444B01F0CFFC044640
:1003C0000D46434951F82A0002F098F8804622462B
:1003D0002B4601F073FF05D838480078401C374998
:1003E000087004E036480078401C35490870354AEA
:1003F00052F82A10364A52F82A0002F0D9F9354943
:1004000041F82A000AF1010ABAF1050FCDDB2B48A9
:10041000007828B9304A0021084600F052FE30E04A
:1004200026480078012805D12C4A0021084600F012
:1004300048FE26E021480078022805D1284A0021FC
:10044000084600F03EFE1CE01C480078032805D159
:10045000224A0021084600F034FE12E017480078D6
:10046000042805D11D4A0021084600F02AFE08E0B4
:1004700012480078052804D11A4A0021084600F0E5
:1004800020FE0A2001F060FB00230D480278194687
:10049000012000F059FE0023084802781946022086
:1004A00000F052FE10480078012804D10F4A0021C4
:1004B000072000F006FEBDE8F0870000870100205D
:1004C00088010020B00100209A9999999999E93FF3
:1004D000C8010020F8010020500000206B0100201E
:1004E000640000207A0000208601002072010020B4
:1004F0002DE9F047002047490870474908708246B7
:100500002EE0464951F82A0001F0F8FF0646444A19
:10051000444B01F023FC04460D46434951F82A00A0
:1005200001F0ECFF804622462B4601F0C7FE05D8BD
:1005300038480078401C3749087004E03648007895
:10054000401C35490870354A52F82A10364A52F88C
:100550002A0002F02DF9354941F82A000AF1010A72
:10056000BAF1050FCDDB2B48007828B9304A0021BD
:10057000084600F0A6FD30E026480078012805D1A5
:100580002C4A0021084600F09CFD26E02148007816
:10059000022805D1284A0021084600F092FD1CE0FF
:1005A0001C480078032805D1244A0021084600F0A1
:1005B00088FD12E017480078042805D1204A002160
:1005C000084600F07EFD08E012480078052804D1B6
:1005D0001C4A0021084600F074FD0A2001F0B4FA1C
:1005E00000230D4802781946012000F0ADFD0023DC
:1005F000084802781946022000F0A6FD124800784B
:10060000012804D1114A0021072000F05AFDBDE85D
:10061000F08700008701002088010020B001002041
:100620009A9999999999E93FC8010020F801002009
:1006300050000020000000201000002020000020BA
:1006400030000020400000208601002072010020C0
:1006500070B5054635B1012D0FD0022D18D0032DF0
:100660002CD120E0002000F081FBC0F30B0401201E
:1006700000F07CFB40EA044421E0022000F076FB1D
:10068000C0F30B04032000F071FB40EA044416E0C1
:10069000042000F06BFBC0F30B04052000F066FBA8
:1006A00040EA04440BE0062000F060FBC0F30B04BA
:1006B000072000F05BFB40EA044400E000BF00BFFD
:1006C00024F07044204670BD70B5054635B1012D4B
:1006D0000FD0022D18D0032D2CD120E0002000F0E7
:1006E00066FBC0F30B04012000F061FB40EA044408
:1006F00021E0022000F05BFBC0F30B04032000F0BC
:1007000056FB40EA044416E0042000F050FBC0F31E
:100710000B04052000F04BFB40EA04440BE00620EC
:1007200000F045FBC0F30B04072000F040FB40EA5B
:10073000044400E000BF00BF24F07044204670BDB8
:1007400010B500F0DDF800F023F97E2000F00EFB7C
:10075000044645F2494084425FD1FB2234210820FF
:1007600000F004FFFB223421092000F0FFFEFB22F1
:1007700034210A2000F0FAFEFB2234210B2000F085
:10078000F5FE1B220021102000F0F0FE1B220021AC
:10079000112000F0EBFE1B220021122000F0E6FEEB
:1007A0001B220021132000F0E1FE02222021142050
:1007B00000F0DCFE02222021152000F0D7FE0222EC
:1007C0002021162000F0D2FE02222021172000F066
:1007D000CDFE002278211E2000F0C8FE00227821E4
:1007E0001F2000F0C3FE00227821202000F0BEFE72
:1007F00000227821212000F0B9FE002211461920A4
:1008000000F0B4FE0D22C2211B2000F0AFFE012239
:1008100014211A2000F0AAFE01E0012010BD0020E2
:10082000FCE710B500F0B4F87E2000F0C0FA0446F2
:1008300045F2494084425FD1FB223421082000F078
:10084000C2FEFB223421092000F0BDFEFB22342130
:100850000A2000F0B8FEFB2234210B2000F0B3FE8A
:100860001B220021102000F0AEFE1B2200211120CF
:1008700000F0A9FE1B220021122000F0A4FE1B2282
:100880000021132000F09FFE02222021142000F0FE
:100890009AFE02222021152000F095FE022220213E
:1008A000162000F090FE02222021172000F08BFE7F
:1008B000002278211E2000F086FE002278211F20D1
:1008C00000F081FE00227821202000F07CFE002232
:1008D0007821212000F077FE00221146192000F037
:1008E00072FE0D22C2211B2000F06DFE0122142198
:1008F0001A2000F068FE01E0012010BD0020FCE796
:100900007047000010B500200A4908600A480B49EA
:10091000086000200A49C1F8940100F033F8012072
:100920000449086000F02EF800200549C1F8900144
:1009300010BD000090012142FFFF33330008014049
:100940000000214210B500200A4908600A480B49FE
:10095000086000200A49C1F8980100F013F801204E
:100960000449086000F00EF800200549C1F89C0118
:1009700010BD00009C012142FFFF333300080140FD
:100980000000214210B5022001F004F910BD000062
:1009900008B50121042000F057FDF020ADF800005B
:1009A00010208DF8030003208DF8020069460448EA
:1009B00000F01EFAF021024800F0F7FA08BD00002E
:1009C0000008014010B500200A4908600A480B4998
:1009D000086001200A49C1F89401FFF7D3FF012004
:1009E00004490860FFF7CEFF00200549C1F89001D7
:1009F00010BD000090012142FFFF33330008014089
:100A00000000214210B500200A4908600A480B493D
:100A1000086001200A49C1F89801FFF7B3FF0120DF
:100A200004490860FFF7AEFF00200549C1F89C01AA
:100A300010BD00009C012142FFFF3333000801403C
:100A40000000214270B50546002412481249086092
:100A5000002614E0002011490860FFF793FF0120F1
:100A60000F49C1F890016006040E0C487C380068FC
:100A700008B144F00104FFF785FF701CC6B2082ED0
:100A8000E8DB15B9FFF79EFF01E0FFF73BFF2046CB
:100A900070BD0000FFFF8338000801409001214233
:100AA0000000214270B50546002412481249086032
:100AB000002614E0002011490860FFF763FF0120C1
:100AC0000F49C1F89C016006040E0C488438006888
:100AD00008B144F00104FFF755FF701CC6B2082EA0
:100AE000E8DB15B9FFF78EFF01E0FFF72BFF20468B
:100AF00070BD0000FFFF8338000801409C012142C7
:100B00000000214270B504461348144908600020D3
:100B10001349086000251CE004F0800020B101208A
:100B20000F49091D086003E000200D49091D0860F8
:100B30006006040EFFF726FF012009490860FFF751
:100B400021FF00200749C1F89001FFF71BFF681C37
:100B5000C5B2082DE0DB70BDFFFF33330008014054
:100B6000900121420000214270B504461348144907
:100B7000086000201349086000251CE004F0800094
:100B800020B101200F49091F086003E000200D4932
:100B9000091F08606006040EFFF7F4FE01200949F2
:100BA0000860FFF7EFFE00200749C1F89C01FFF73E
:100BB000E9FE681CC5B2082DE0DB70BDFFFF3333D2
:100BC000000801409C0121420000214210B50A4862
:100BD0000A49086001200A4908600A49C1F89001E1
:100BE000FFF7D0FE002006490860FFF7CBFE00208B
:100BF0000449C1F8900110BDFFFF333300080140E4
:100C0000940121420000214210B50A480A490860B7
:100C100001200A4908600A49C1F89C01FFF7B2FEA9
:100C2000002006490860FFF7ADFE00200449C1F826
:100C30009C0110BDFFFF33330008014098012142A1
:100C40000000214210B50A480A49086000200A49FC
:100C500008600A49C1F89401FFF794FE0120064993
:100C600008600649C1F89401FFF78CFE10BD000032
:100C7000FFFF333300080140900121420000214270
:100C800010B50A480A49086000200A4908600A4964
:100C9000C1F89801FFF776FE012006490860064971
:100CA000C1F89801FFF76EFE10BD0000FFFF33335F
:100CB000000801409C0121420000214210B500249F
:100CC000104811490860012010490860FFF75AFEDA
:100CD00001200F49C1F89001FFF754FE07E0601CA6
:100CE000C4B2FA2C03DDFFF7ADFF012010BD0748A9
:100CF000803800680028F2D10449091F086000BF4D
:100D0000F4E70000FFFF833800080140940121420E
:100D10000000214210B5002410481149086001204C
:100D200010490860FFF72EFE01200F49C1F89C0111
:100D3000FFF728FE07E0601CC4B2FA2C03DDFFF7C2
:100D40009FFF012010BD0748803800680028F2D1BD
:100D50000449091D086000BFF4E70000FFFF833865
:100D600000080140980121420000214270B505466B
:100D7000FFF72CFF5420FFF7C5FEFFF79FFF284623
:100D8000FFF7C0FEFFF79AFFFFF720FF5520FFF7A0
:100D9000B9FEFFF793FF0120FFF754FE0402002085
:100DA000FFF750FE0443FFF74DFF204670BD70B5BE
:100DB0000546FFF729FF5420FFF7D6FEFFF7AAFFED
:100DC0002846FFF7D1FEFFF7A5FFFFF71DFF5520CF
:100DD000FFF7CAFEFFF79EFF0120FFF763FE040244
:100DE0000020FFF75FFE0443FFF74AFF204670BD77
:100DF0002DE9F041024600250026002000230024B2
:100E0000002791F803C00CF00F0591F803C00CF017
:100E1000100CBCF1000F03D091F802C04CEA05059C
:100E200091F800C0BCF1000F31D0146800202BE015
:100E30004FF0010C0CFA00F3B1F800C00CEA030605
:100E40009E4220D183004FF00F0C0CFA03F7BC43F5
:100E500005FA03FC4CEA040491F803C0BCF1280F26
:100E600006D14FF0010C0CFA00FCC2F814C00AE0E5
:100E700091F803C0BCF1480F05D14FF0010C0CFAFA
:100E800000FCC2F810C0401C0828D1D31460B1F88F
:100E900000C0BCF1FF0F34DD546800202EE000F1EB
:100EA000080C4FF0010808FA0CF3B1F800C00CEA86
:100EB00003069E4221D183004FF00F0C0CFA03F77A
:100EC000BC4305FA03FC4CEA040491F803C0BCF1EE
:100ED000280F05D100F1080C08FA0CF8C2F81480AC
:100EE00091F803C0BCF1480F07D100F1080C4FF096
:100EF000010808FA0CF8C2F81080401C0828CED36C
:100F00005460BDE8F0810000F0B50A4600230024DB
:100F10000021002500F00046B6F1004F02D11D4E21
:100F2000F16901E01B4E7168C0F3034583B200F420
:100F30004016B6F5401F08D121F07061154E766855
:100F400026F07066134F7E6012E000F48016B6F54E
:100F5000801F06D1032606FA05F4A14341F0706113
:100F600006E0460D360103FA06F6B14341F0706122
:100F700022B1460D360103FA06F6314300F0004671
:100F8000B6F1004F02D1034EF16101E0014E7160F4
:100F9000F0BD0000000001400246002093680B40B5
:100FA0000BB1012000E0002070470161704700BFD5
:100FB000FEE7000008B50121082000F045FA0121F4
:100FC0000748FFF7A1FF4FF46840ADF80000482044
:100FD0008DF8030069460348FFF70AFF08BD0000CB
:100FE00000023000000C014010B5044614B101208D
:100FF000304908702F48007800283DD04FF4006138
:101000002D48FFF7C9FF88B14FF400512A48FFF778
:10101000C3FF58B14FF480412748FFF7BDFF28B107
:101020004FF400412448FFF7B7FF28BB0A2000F027
:101030008BFD00201F4908704FF400611E48FFF728
:10104000ABFF08B9012010BD4FF400511A48FFF75B
:10105000A3FF08B90220F6E74FF480411648FFF7D6
:101060009BFF08B90320EEE74FF400411248FFF759
:1010700093FFE0B90420E6E74FF400610E48FFF764
:101080008BFF012813D141030B48FFF785FF01288F
:101090000DD181030848FFF77FFF012807D1C10365
:1010A0000548FFF779FF012801D1024908700020A7
:1010B000C9E7000094010020000C014000BFFEE7DA
:1010C000704770B505460E4614461AE07A2E02DCCB
:1010D00020780A2805D10026681CC5B2072D07DD37
:1010E00012E02078202802DB20787F2800DD08E04D
:1010F00022783146284600F009F8B01DC6B2641CBB
:1011000000BF20780028E1D100BF70BD2DE9F0417B
:1011100006460F461446A4F12000C4B231463846B4
:1011200000F072F9002509E004EB4401054A02EBE6
:101130004101485D00F046F9681CC5B2062DF3DB9D
:10114000BDE8F0819A2800082DE9FF4F81B08B4659
:1011500015461F464FF00009DA46002D02DA4FF01F
:1011600001096D424FF00108002409E0B5FBF8F0D9
:1011700000B907E008EB88004FEA4008601CC4B2E1
:101180000A2CF3DB00BFAFB104EB0900B84211DA5F
:1011900000260AE0202251460198FFF7B7FF0AF126
:1011A000060000F0FF0A701CC6B204EB0900381AF2
:1011B000B042EFDCB9F1000F08D02D225146019862
:1011C000FFF7A4FF0AF1060000F0FF0A4FF0010844
:1011D000002605E008EB88004FEA4008701CC6B204
:1011E000601EB042F6DC00261DE0B5FBF8F03030A2
:1011F000C0B20246514600900198FFF787FF0AF1FE
:10120000060000F0FF0ABAF17A0F00DD0DE005EBF1
:101210008500450008EB88004000B5FBF0F100FBBD
:101220001155701CC6B2A642DFDB00BF04EB0900FB
:10123000B84200DA3C46B9F1000F01D0601CC4B2DC
:10124000204605B0BDE8F08F10B500F057F800203B
:1012500028490860012000F077FC01202649C1F8E8
:101260009401A12000F082F8C82000F07FF800204F
:1012700000F0DEF80021084600F0C6F8802000F0FB
:1012800097F8A62000F072F8402000F06FF8D32005
:1012900000F06CF8002000F069F8322000F066F8E9
:1012A000AD2000F063F88B2000F060F8A82000F07B
:1012B0005DF83F2000F05AF8D52000F057F8502094
:1012C00000F054F8D92000F051F8222000F04EF838
:1012D000DA2000F04BF8012000F048F8DB2000F0A5
:1012E00045F8352000F042F800F026F8012000F023
:1012F0009FF810BD948121420080214208B5012150
:10130000082000F0A1F80020ADF8000010208DF8B2
:10131000030003208DF80200A020ADF80000BDF806
:10132000000040F00A00ADF8000069460148FFF7F0
:101330005FFD08BD000C014070B5002411E021469E
:10134000002000F061F8012007490860002504E052
:10135000002000F037F8681CC5B2802DF8DB601C57
:10136000C4B2082CEBDB70BD9C81214200220F4BE4
:101370001A60002117E000220C4B183B1A6000F0A5
:10138000800222B10122094B103B1A6003E00022C7
:10139000064B103B1A600122044B183B1A604206B0
:1013A000100E4A1CD1B20829E5DB70479C8121420E
:1013B00010B504468120FFF7D9FF2046FFF7D6FF7E
:1013C00010BD000001220F4B1A60002117E000221F
:1013D0000C4B183B1A6000F0800222B10122094B2D
:1013E000103B1A6003E00022064B103B1A600122FA
:1013F000044B183B1A604206100E4A1CD1B2082951
:10140000E5DB70479C81214270B504460D46A01C67
:10141000C4B205F1B001C8B2FFF7A8FF04F00F0095
:10142000FFF7A4FF102101EB2410FFF79FFF70BD11
:1014300010B504461CB1AF20FFF798FF02E0AE20C4
:10144000FFF794FF10BD704729B1064A9269024325
:10145000044B9A6104E0034A92698243014B9A610A
:1014600070470000001002407047000010B50121D5
:101470000846FFF7E9FF01210148FFF745FD10BDD0
:101480000002300010B500F001F810BD0CB50020CE
:10149000019000903348006840F480303149086082
:1014A00000BF3048006800F4003000900198401CF4
:1014B0000190009818B90198B0F5A06FF1D12948B2
:1014C000006800F4003010B10120009001E000201D
:1014D00000900098012843D12348006840F0100094
:1014E000214908600846006820F0030008600846AB
:1014F000006840F0020008601A48406819494860D6
:101500000846406848600846406840F4806048608B
:101510000846406820F47C1048600846406840F463
:10152000E81048600846006840F08070086000BF1E
:101530000C48006800F000700028F9D009484068A5
:1015400020F00300074948600846406840F0020068
:10155000486000BF0348406800F00C000828F9D13B
:101560000CBD0000001002400020024070B506468D
:101570000C461546FFF72AFB5420FFF7C3FAFFF786
:101580009DFB18B1FFF75EFB012070BD3046FFF7F1
:10159000B9FAFFF793FB2046FFF7B4FAFFF78EFB8B
:1015A00018B1FFF74FFB0120EFE72846FFF7AAFA33
:1015B000FFF784FB18B1FFF745FB0120E5E7FFF7D4
:1015C00041FB0020E1E770B506460C461546FFF7E3
:1015D0001BFB5420FFF7C8FAFFF79CFB18B1FFF77D
:1015E0004FFB012070BD3046FFF7BEFAFFF792FBBC
:1015F0002046FFF7B9FAFFF78DFB18B1FFF740FB64
:101600000120EFE72846FFF7AFFAFFF783FB18B199
:10161000FFF736FB0120E5E7FFF732FB0020E1E7AB
:10162000042808D14FF0E021096941F004014FF08E
:10163000E022116107E04FF0E021096921F0040187
:101640004FF0E022116170477047000010B5134859
:10165000006840F0010011490860084640681049E0
:1016600008400E494860084600680E4908400B498A
:1016700008600846006820F480200860084640683A
:1016800020F4FE0048604FF41F008860FFF7FAFE68
:101690004FF000600449086010BD000000100240D7
:1016A0000000FFF8FFFFF6FE08ED00E010B5002097
:1016B000084908700849087000F024FAFFF7D6FEC0
:1016C000FFF73EF8FFF7ADF8FFF7BEFDFFF772FC3E
:1016D00010BD0000870100208801002010B50F4ACE
:1016E00000210846FFF7EDFC0D4A00210120FFF71D
:1016F000E8FC0C4A00210220FFF7E3FC0A4A002123
:101700000320FFF7DEFC094A00210420FFF7D9FC83
:10171000074A00210520FFF7D4FC10BD8E000020F1
:10172000A4000020B3000020C2000020D10000204F
:10173000E000002010B50120114908700A2000F0D7
:1017400003FAFFF7F9FD0A2000F0FEF9FEF7B8FDF5
:10175000FEF7CEFE0020FFF747FC0A4908700A4A50
:1017600000210420FFF7ADFC00BF0020FFF73CFC88
:101770000028FAD0FFF7E0FD0A2000F0E5F910BDDF
:1017800086010020840100202B01002010B50120DB
:10179000114908700A2000F0D7F9FFF7CDFD0A20A3
:1017A00000F0D2F9FEF78CFDFEF7F6FD0020FFF702
:1017B0001BFC0A4908700A4A00210420FFF781FC3B
:1017C00000BF0020FFF710FC0028FAD0FFF7B4FD9F
:1017D0000A2000F0B9F910BD860100208401002024
:1017E0002B01002000201449087023E00A2000F09B
:1017F000ABF90020FFF7F8FB0F49087008460078A6
:10180000012806D0022807D0032808D004280CD1CC
:1018100008E0FFF7BBFF0CE0FFF78CFF09E000F0EA
:1018200083F806E000F00AF803E00A2000F08CF9E3
:1018300000BF00BFDAE700008401002010B50A20D5
:1018400000F082F9FFF778FD0A2000F07DF93048BA
:101850000078012828D1FFF76FFD002421E02D4AF0
:1018600000210846FFF72DFC2B4A00210120FFF73D
:1018700028FC00BF0020FFF7B7FB0028FAD0FFF7D5
:101880005BFDFEF71DFDFEF733FE234A002101201C
:10189000FFF717FC00BF0020FFF7A6FB0028FAD0D7
:1018A000641C052CDBDB31E0002426E0FFF744FD5F
:1018B000FEF706FDFEF71CFE184A00210220FFF786
:1018C00000FC0023621C19460320FFF73DFC022C9C
:1018D00002D101200E4908700020FFF785FB104956
:1018E00008700D4A00210420FFF7EBFB00BF002029
:1018F000FFF77AFB0028FAD0641C022CD6DDFFF734
:101900001BFD084A00210420FFF7DBFB10BD00008F
:1019100085010020E00000202B010020460100206E
:1019200084010020D100002010B50A2000F00CF93D
:10193000FFF702FD0A2000F007F93048007801287F
:1019400028D1FFF7F9FC002421E02D4A00210846A8
:10195000FFF7B7FB2B4A00210120FFF7B2FB00BFC6
:101960000020FFF741FB0028FAD0FFF7E5FCFEF767
:10197000A7FCFEF711FD234A00210120FFF7A1FB80
:1019800000BF0020FFF730FB0028FAD0641C052CB4
:10199000DBDB31E0002426E0FFF7CEFCFEF790FC15
:1019A000FEF7FAFC184A00210220FFF78AFB002309
:1019B000621C19460320FFF7C7FB022C02D101204D
:1019C0000E4908700020FFF70FFB104908700D4A00
:1019D00000210420FFF775FB00BF0020FFF704FB88
:1019E0000028FAD0641C022CD6DDFFF7A5FC084ABB
:1019F00000210420FFF765FB10BD000085010020D9
:101A0000E00000202B01002046010020840100207E
:101A1000C200002010B540F225511D4800F03EF8EC
:101A200010B31B4800F064F8C4B21A48008800F4F0
:101A30000040C8B91748008800F4804060B10A2C03
:101A400003D000201349088020E01248008840F4A9
:101A500000401049088019E00D2C06D10D4800887F
:101A600040F480400B49088010E00A480088C0F329
:101A70000D0009490C5407480088401C054908809E
:101A800008460088C72801DD0020088010BD00003E
:101A9000003801409A0100207002002070B5024613
:101AA000002400230025002040F66A16B14200D130
:101AB00000BFC1F3421501F01F03012606FA03F32C
:101AC000012D02D19689334006E0022D02D1168AFB
:101AD000334001E0968A33400C12012606FA04F4E2
:101AE0001688344013B10CB1012000E0002070BD15
:101AF00001468888C0F30800704700BFFEE700BFBA
:101B00007047000010B56FF00400FFF789FD0A4828
:101B100000680A49B0FBF1F00949087008460078EE
:101B200000EB4001C1EBC0104FF6FF7101EAC000AD
:101B30000449088010BD00009C01002000127A00BA
:101B400096010020980100200146114A12884A435C
:101B50004FF0E0235A6100229A611A46126942F05E
:101B600001021A6100BF4FF0E022106900F001028B
:101B70001AB100F48032002AF5D04FF0E022126949
:101B800022F001024FF0E0231A6100229A617047AF
:101B9000980100200146114A12784A434FF0E02391
:101BA0005A6100229A611A46126942F001021A61D2
:101BB00000BF4FF0E022106900F001021AB100F4FA
:101BC0008032002AF5D04FF0E022126922F00102A3
:101BD0004FF0E0231A6100229A61704796010020BD
:101BE00025482649086026484860264888602648D7
:101BF000C86026480861264848612648886126480A
:101C0000C8612648086226484862264888622648F5
:101C1000C8622648264908602648486026488860E9
:101C20002648C860264808612648486126488861D9
:101C30002648C861264808622648486226488862C5
:101C40002648C86226482749086027484860274830
:101C500088600020C8602648086100204861254946
:101C60000870FFF723FDFFF767FBFEF707FBFFF7A1
:101C700035FDFFF7B7FD00002DDE634210020020A6
:101C80001378644252906E42A7BB6E4299765B42D3
:101C900041955C426FCC6E42F8146F425A3D6842E7
:101CA000AB6869421F306042D84E6142A86B6C42FB
:101CB00040020020DC75714213C2774287A87C4243
:101CC000A2856242FA686A42C253754271977C42A9
:101CD000273A714298D378426A2861422D096242BC
:101CE000CDCCCC3FE0010020295C0F3FD82A833FB8
:101CF000802FFA3F8501002021F00042A2F16052BE
:101D0000B2F5801F01F0004328BFD2F17F6C0BD9E0
:101D10005FEA001C43EAC20242EB507018BF7047F2
:101D200028BF20F001007047B2F5801FBCBF1846E5
:101D300070474FEA410C1CF5001F02D2084600F024
:101D400032BD70B500F066FA00000089FFF7F6BFFB
:101D50004FF00040A0F580007047000010B591EAF8
:101D6000030F48BF83F0004300F1E682841A71EB51
:101D7000030C05D2121943EB0C03001B61EB0C01A1
:101D8000DFF824E14FEA1154A4EB135C1EEA430F81
:101D900018BF9EEA445F73D023EA0E03DCF1200EE5
:101DA00021EA045143F4801332D322FA0CFE10EBE3
:101DB0000E0023FA0CFE41EB0E01CCF1200E03FACB
:101DC0000EFE10EB0E0051F10001B1F5801FCCF1B9
:101DD000200E32D201EB045112FA0EF2BDE810408F
:101DE00058BF7047401C38BF5FEA420218BF7047B7
:101DF000002814BF20F0010041F100014FEA410327
:101E000013F5001F38BF7047A1F1C04100F050BA70
:101E1000012A43EB0302ACF1200CDCF11F0E32BFB0
:101E20004FF0000E23FA0CF310EB030041EB0451CA
:101E3000B4EB115FD0D0A1EB045101F5801149083A
:101E40005FEA300001EB04510ED350F1000038BFBF
:101E500012FA0EFE08D1BDE81040C9E7401C38BF99
:101E60005FEA4202CAD1C3E7BDE810404FEA41032E
:101E700013F5001F38BF7047A1F1C04100F018BA38
:101E80009EEA445F08D011EA5E0FBDE8104004BF2F
:101E900001F0004100207047BDE8104070B500F02F
:101EA000B9F900BF64FBBE3E0000E0FF491058BF17
:101EB000C1F140415B1058BFC3F140438B42EFF387
:101EC000008070472DE9C04130B4DFF8A0C23CEA81
:101ED000111418BF3CEA131400F0EC8081EA0305EA
:101EE0001CEA111444EAD57418BF1CEA131500F05B
:101EF000C780A4EB05044FF0004545EAC12145EA3F
:101F0000C32341EA505143EA525304F17F7499428A
:101F100004F500344FEAC0204FEAC22208BF9042C5
:101F200000F09C804FEA13650FF24016765D4FEA91
:101F3000134506FB05F7C7F1807706FB07F74FEA65
:101F4000D737A7FB03687642C8F58038A7FB06CED3
:101F500038BFA8F1010807FB08E64FF0000EA6FB0A
:101F6000028CE6FB03CEDCF1000CCEF1004E38BF54
:101F7000AEF1010EA6FB0C584FF000074FF0000524
:101F8000E6FB0E87A1FB08C6A0FB07CE16EB0E06EC
:101F900045F10005E1FB076515F1E04E7EBFA4F5B4
:101FA00080345FEA46066D4116F1800745F1000571
:101FB0004FEA17274FEA066647EA0567A6F1DE46AD
:101FC000B6F1805F4FEA15251FD9384624F0010C81
:101FD00005EBC471BCF1FE6F01EB0C1102D8F0BC33
:101FE000BDE8008124425CBF01F5801E9EEAC47FEB
:101FF00002D4F0BCBDE80081244238D4F0BCA1F189
:10200000C041BDE8004100F053B94FEAD22242EA94
:1020100043524FEAD323A7FB02864FEAD02040EA7F
:10202000415007FB03661EEA0E0F4FEAD12105FB64
:10203000026658BFA6EB0056B6EB00564FEA520EAA
:102040004EEAC37E18EB0E0E56EB530EBDD518EBC1
:1020500002085E417F1C55F10005B6E74FF480157C
:102060004FF000074FF000064FF00008ADE7F0BC5E
:102070004FF0000001F1C04101F00041BDE80081D6
:1020800011EA0C1F0CEA131500D00CE013EA0C1F28
:1020900000F025804FF00000F0BC81EA030101F060
:1020A0000041BDE80081F0BCBDE8004181EA0301C8
:1020B00000F0FEB8F0BCBDE8004170B500F0AAF831
:1020C000097EFC3E00F007B881EA03014FF00000F2
:1020D00001F00041704781EA030100F0E9B8F0BC6B
:1020E000BDE800414FF0000021497047FFFDFBF9BA
:1020F000F7F5F4F2F0EEEDEBE9E8E6E4E3E1E0DE3B
:10210000DDDBDAD8D7D5D4D3D1D0CFCDCCCBCAC8AC
:10211000C7C6C5C4C2C1C0BFBEBDBCBBBAB9B8B7D3
:10212000B6B5B4B3B2B1B0AFAEADACABAAA9A8A8C6
:10213000A7A6A5A4A3A3A2A1A09F9F9E9D9C9C9B94
:102140009A9999989797969595949393929191903F
:102150008F8F8E8E8D8C8C8B8B8A898988888787D0
:102160008685858484838382828181800000FF0745
:102170000000F87FB0FA80F310FA03F10AD0C3F13F
:102180001D0303F580634FEA41504FEA035202EB0F
:10219000D12170474FF000007047000051EA030C56
:1021A00017D41CF5801F58BFBCF5801F00F10680B6
:1021B000994218BF704708BF9042704707D711F582
:1021C000801F58BF13F5801F19D499427047894268
:1021D00070471CF5801F08D5BCF5801FF7D58B42D2
:1021E00018BF704708BF824270474FF4001C1CEBB9
:1021F000410F38BF1CEB430F01D28B42704770B5C3
:1022000000F008F8922449004FF000514FF080533D
:10221000FFF74CBE0EF1020E2EF0030E5EF8046BBB
:10222000364205D4012A43EB030515F5001F12D8E9
:10223000012841EB010C1CF5001F0CD80ED14FEA10
:10224000D17C15F5001F0CEB4C0C0CF1020C08BFF7
:102250004CEBD37C04E04FF0080C01E04FEAD37C58
:102260000CEB4C0526FA05F606F00706B6F1040C51
:1022700006D20EEB860CBDE870404CF0010C6047B6
:10228000DFE80CF0090B02024FF000414FF00000B4
:10229000A1F5002170BD19461046012851EB01043B
:1022A00018BFD4F5001484BF002001F0004170BDB8
:1022B0000808A0F500114FEA3101704753EA010CFC
:1022C00017D41CF5801F58BFBCF5801F00F1068095
:1022D0008B4218BF704708BF8242704707D713F57B
:1022E000801F58BF11F5801F19D48B4270479B4245
:1022F00070471CF5801F08D5BCF5801FF7D59942A3
:1023000018BF704708BF904270474FF4001C1CEB89
:10231000430F38BF1CEB410F01D2994270470FB4F5
:102320000CBC03BCFFF76BBF10B591EA030F48BFAD
:1023300083F000433FF51AAD841A71EB030C07D20A
:1023400012198CF0004C43EB0C03001B61EB0C01E9
:10235000DFF8A4E14FEA1154A4EB135C1EEA430F2B
:1023600018BF9EEA445F00F0B08023EA6E03524239
:1023700021EA0451C3EB6E0338BF5B1EDCF1200E73
:1023800025D322FA0CFE10EB0E0043FA0CFE41EBB3
:102390000E01CCF1200E03FA0EFE10EB0E0051F1EF
:1023A0000001CCF1200E29D412FA0EF201EB0451F7
:1023B000BDE8104058BF7047401C1CBFB2F1004F31
:1023C000704700280CBF491C20F00100704712EB39
:1023D000020E43EB030218BF4FF0010E4EEA420219
:1023E000ACF1200CDCF11E0E54D943FA0CFE10EBBC
:1023F0000E0051F1FF31CCF11E0ED5D50EF1010EBC
:1024000012FA0EFE404141EB010101EB445C5FEA30
:102410005C5C10D910EBDE7001EB045138BFBEF1EB
:10242000004FBDE8104018BF704700280CBF491C82
:1024300020F00100704730D24FEAD42C11F5001182
:1024400024F400641BD0B1FA81F20B3AA41AA41E42
:10245000D2F12003914030FA03F31943904001EB8D
:10246000CC71002C01EB0451BDE81040A8BF7047AF
:1024700001F1C0414FF0000001F000417047B0FA97
:1024800080F310FA03F100D110BDE41A173C48059F
:10249000C90AE4E701EB045110BD491001EB0451F6
:1024A000BDE810404FEA300002E04FF000017047F5
:1024B0004A0008BF0042F8D0B2F5001F28BF70479D
:1024C00001F000414FF0000070479EEA445F07D0E2
:1024D00011EA5E0FBDE8104004BF002100207047E4
:1024E000BDE8104070B5FFF795FE00BF40DFF63E37
:1024F00083F00041104670470000E0FF43004FEAC0
:10250000D30C4FEA3C0C43401FBF40070CF1605115
:1025100013F0FE4F70471CF0006F03D100200CF049
:10252000004170470CF0004343EA507010B540EA98
:10253000CC0000F0F2F800BF000000924FEA00016A
:10254000FFF7B6BE4FF000414FF00000A1F50021AB
:102550007047000090EA010F48BF81F0004100F190
:102560002E81421A3CBF801A89184FEAD0524FF090
:102570007F4C1CEA410FA2EBD15318BF9CEA026FBB
:1025800000F03B804FF0004C4CEA00204CEA012167
:1025900021FA03FC10EB0C0C1ED202F1FF325FEAB1
:1025A0001C2040EBC25038BF70471CF07F0F4FEA31
:1025B000400C18BFBCF17F4F38BF7047C3F12003F8
:1025C000994008BF20F00100BCF17F4F38BF704731
:1025D000A0F1C04000F0E7B84FEA3C00000A40EB31
:1025E000C25028BF1CF0FF0F4FEA400CE6D018BFC6
:1025F000BCF17F4F38BF7047EAE79CEA026F05D015
:1026000010EA5C0F08BF00F00040704710B500F002
:1026100084F800BF64FBBE3E4FF47F0C1CEAD0126E
:102620001EBF1CEAD11392EA0C0F93EA0C0F00F0C4
:10263000478090EA010F48BF42F480724FF0004C8F
:102640004CEA00204CEA012102EB0302A0FB01133B
:10265000A2F50002002918BF43F001035B0028BF68
:102660004FEA330342EB22425FEA132C4CEBC25099
:102670002EBFBCEB436FB2F57C0F70474FEA036C83
:10268000BCF1004F08BF20F00100B2F57C0F38BF4D
:1026900070470BD582F0FF0212F5803FC8BF70472C
:1026A00000F1C040D8BF00F00040704700F5000CBA
:1026B0005FEA4C0C48BF7047B0F1C04000F073B8FF
:1026C00090EA010F0CEAD11348BF42F480726245D0
:1026D00038BF634504D280EA010000F00040704733
:1026E00010B500F01AF800BF8900013E00F007B8ED
:1026F00000F009B85FEA410C5FEA1C6C08D080EA80
:10270000010000F050B85FEA400C5FEA1C6CF6D1A3
:102710004FF00040A0F5800070470EF1020E2EF041
:10272000030E5EF8044B244204D44FEA4102B2F196
:102730007F4F11D84FEA4003B3F17F4F0CD80ED131
:102740004FEAD07CB2F17F4F0CEB4C0C0CF1020C39
:1027500008BF4CEBD17C04E04FF0080C01E04FEADD
:10276000D17C0CEB4C0324FA03F404F00704B4F11D
:10277000040C06D20EEB840CBDE810404CF0010CAA
:102780006047DFE80CF0070802024FF00040A0F5B8
:10279000800010BD0846420018BFD2F1807288BF89
:1027A00000F0004010BDFF2141EAD050C005704745
:1027B00090EA010F48BF81F000413FF5D2AE421AC6
:1027C00004D882F00042A0EB020011444FEAD0523C
:1027D0004FF07F4C1CEA410FA2EBD15318BF9CEA8B
:1027E000026F4AD04FF0004C4CEA00204CEA012125
:1027F00021FA03FCB0EB0C0C0FD412F0FE0F36D014
:102800005FEA4C001DD5001240EBC25038BF704744
:102810001CF03F0F18BF70470BE0A2F101025FEA06
:102820001C2040EBC25038BF70471CF07F0F18BF10
:102830007047C3F12003994014BF401E20F00100EF
:10284000704780084FEA122308BF7047B0FA80FC37
:10285000A2EB0C02CCF1280C60FA0CF093EA122FD8
:1028600004BF00EBC25070474FEAC3707047130AB1
:102870005FEADC1008BF7047F6E79CEA026F04D0FD
:1028800010EA5C0F08BF0020704710B5FFF745FF46
:1028900040DFF63E81F0004070470000000000007D
:1028A0000000002F000000000700070000147F1444
:1028B0007F1400242A7F2A12006264081323003642
:1028C0004955225000000503000000001C22410071
:1028D000000041221C000014083E08140008083EB5
:1028E0000808000000A060000008080808080000B0
:1028F00060600000002010080402003E5149453E7F
:102900000000427F4000004261514946002141459C
:102910004B31001814127F10002745454539003C03
:102920004A494930000171090503003649494936D1
:1029300000064949291E00003636000000005636C0
:1029400000000008142241000014141414140000A4
:102950004122140800020151090600324959513E32
:10296000007C1211127C007F49494936003E4141EA
:102970004122007F4141221C007F49494941007F9B
:1029800009090901003E4149497A007F0808087F8A
:102990000000417F4100002040413F01007F0814BA
:1029A0002241007F40404040007F020C027F007FB8
:1029B0000408107F003E4141413E007F090909069D
:1029C000003E4151215E007F0919294600464949D0
:1029D00049310001017F0101003F4040403F001F9D
:1029E0002040201F003F4038403F0063140814631C
:1029F00000070870080700615149454300007F4106
:102A0000410000552A552A55000041417F0000042D
:102A10000201020400404040404000000102040066
:102A2000002054545478007F4844443800384444CB
:102A3000442000384444487F003854545418000857
:102A40007E0901020018A4A4A47C007F0804047875
:102A50000000447D4000004080847D00007F1028FD
:102A600044000000417F4000007C04180478007C92
:102A70000804047800384444443800FC2424241812
:102A80000018242418FC007C08040408004854544E
:102A9000542000043F444020003C4040207C001C67
:102AA0002040201C003C4030403C0044281028447A
:102AB000001CA0A0A07C004464544C4414141414C2
:102AC00014140000000000000000000000000000DE
:102AD0000000000000F8000000000000003330009B
:102AE000000000100C06100C0600000000000000A2
:102AF000000040C07840C0784000043F04043F0418
:102B00000400007088FC08300000001820FF211E1F
:102B10000000F008F000E018000000211C031E2156
:102B20001E0000F00888700000001E2123241927D1
:102B3000211010160E000000000000000000000030
:102B40000000000000E01804020000000007182048
:102B5000400000020418E0000000004020180700B8
:102B60000000404080F0804040000202010F01025E
:102B70000200000000F0000000000101011F01013F
:102B80000100000000000000000080B070000000A4
:102B90000000000000000000000000010101010130
:102BA00001010000000000000000003030000000C3
:102BB000000000000000806018040060180601009A
:102BC000000000E010080810E000000F10202010A6
:102BD0000F00001010F8000000000020203F20200F
:102BE00000000070080808887000003028242221A6
:102BF000300000300888884830000018202020115C
:102C00000E000000C02010F8000000070424243F3C
:102C1000240000F8088888080800001921202011E5
:102C20000E0000E0108888180000000F112020110D
:102C30000E0000380808C83808000000003F0000F7
:102C400000000070880808887000001C22212122E2
:102C50001C0000E010080810E000000031222211E2
:102C60000F00000000C0C000000000000030300075
:102C700000000000008000000000000080600000F4
:102C8000000000008040201008000001020408102D
:102C9000200040404040404040000404040404043C
:102CA00004000008102040800000002010080402EA
:102CB0000100007048080808F000000000303601EC
:102CC0000000C030C828E810E000071827242314AB
:102CD0000B000000C038E0000000203C2302022767
:102CE000382008F8888888700000203F20202011B4
:102CF0000E00C030080808083800071820202010EF
:102D0000080008F808080810E000203F20202010E4
:102D10000F0008F88888E8081000203F20202320B2
:102D2000180008F88888E8081000203F20000300F9
:102D30000000C03008080838000007182020221EB4
:102D4000020008F808000008F808203F21010121CE
:102D50003F20000808F8080800000020203F20203D
:102D6000000000000808F8080800C08080807F008C
:102D7000000008F888C028180800203F20012638E5
:102D8000200008F8080000000000203F202020203C
:102D9000300008F8F800F8F80800203F003F003F36
:102DA000200008F830C00008F808203F200007186D
:102DB0003F00E01008080810E0000F10202020104D
:102DC0000F0008F808080808F000203F2101010161
:102DD0000000E01008080810E0000F182424385004
:102DE0004F0008F8888888887000203F2000030C76
:102DF000302000708808080838000038202121227F
:102E00001C00180808F8080818000000203F2000DF
:102E1000000008F808000008F808001F2020202003
:102E20001F000878880000C83808000007380E0125
:102E30000000F80800F80008F800033C0700073C11
:102E40000300081868808068180820302C03032CC1
:102E500030200838C800C83808000000203F200093
:102E6000000010080808C838080020382621202053
:102E70001800000000FE020202000000007F404037
:102E80004000000C30C000000000000000010638C7
:102E9000C00000020202FE000000004040407F002F
:102EA0000000000004020202040000000000000014
:102EB0000000000000000000000080808080808012
:102EC00080800002020400000000000000000000FA
:102ED000000000008080808000000019242222224F
:102EE0003F2008F8008080000000003F11202011E2
:102EF0000E000000008080800000000E11202020C5
:102F00001100000000808088F800000E11202010C1
:102F10003F200000808080800000001F22222222AB
:102F20001300008080F0888888180020203F20202F
:102F300000000000808080808000006B9494949357
:102F4000600008F8008080800000203F2100002001
:102F50003F2000809898000000000020203F2020A3
:102F60000000000000809898000000C08080807FF2
:102F7000000008F8000080808000203F24022D30EF
:102F80002000000808F8000000000020203F20205A
:102F900000008080808080808000203F20003F20D3
:102FA000003F8080008080800000203F21000020C2
:102FB0003F200000808080800000001F2020202013
:102FC0001F00808000808000000080FFA120201171
:102FD0000E000000008080808000000E112020A0E4
:102FE000FF80808080008080800020203F212000A2
:102FF000010000008080808080000033242424248D
:103000001900008080E0808000000000001F202068
:1030100000008080000000808000001F2020201021
:103020003F20808080000080808000010E300806F4
:10303000010080800080008080800F300C030C3005
:103040000F0000808000808080000020312E0E3133
:103050002000808080000080808080818E70180633
:10306000010000808080808080000021302C22219F
:10307000300000000000807C020200000000003FE1
:10308000404000000000FF00000000000000FF00C2
:1030900000000002027C800000000040403F000071
:1030A000000000060101020204040000000000000C
:1030B00000000000D430000800000020B001000033
:1030C00028010008B4310008B0010020E807000022
:1030D000840100081010746865207369676E616C64
:1030E0002069732031C910DA3210DA3310DA341063
:1030F000DA3510EE73746F6E6514DF636973736F86
:10310000721616636C6F7468380C77656C636F6D3C
:103110006520746F201F16797374656D1D7072655C
:10312000739C29165C6465310F4A320F5A320F3A8C
:1031300033346A721E4A340F191E3B75744BA81241
:1031400068616E64206F6E207465737420617265AF
:1031500061561D73746172270E107261696E2118B9
:103160006F646563696465192808616E79206B6511
:10317000791F1808636F6E74696E751B2962393F79
:1031800029CBBB6F6B45692611176572726F72216F
:103190001808506C6561736520212A659B936973DB
:1031A000DA0108117CA24A041C000800020304068C
:0431B0000708090003
:04000005080001C925
:00000001FF
